{
  "contractName": "ForensicContract",
  "abi": [
    {
      "inputs": [
        {
          "internalType": "uint256",
          "name": "",
          "type": "uint256"
        }
      ],
      "name": "crime",
      "outputs": [
        {
          "internalType": "uint256",
          "name": "crime_id",
          "type": "uint256"
        },
        {
          "internalType": "string",
          "name": "exhibit_name",
          "type": "string"
        },
        {
          "internalType": "string",
          "name": "desc",
          "type": "string"
        },
        {
          "internalType": "string",
          "name": "timestamp",
          "type": "string"
        },
        {
          "internalType": "string",
          "name": "ipfsHash",
          "type": "string"
        }
      ],
      "stateMutability": "view",
      "type": "function"
    },
    {
      "inputs": [
        {
          "internalType": "uint256",
          "name": "_crime_id",
          "type": "uint256"
        },
        {
          "internalType": "string",
          "name": "_exhibit_name",
          "type": "string"
        },
        {
          "internalType": "string",
          "name": "_desc",
          "type": "string"
        },
        {
          "internalType": "string",
          "name": "_timestamp",
          "type": "string"
        },
        {
          "internalType": "string",
          "name": "_ipfsHash",
          "type": "string"
        }
      ],
      "name": "addReport",
      "outputs": [
        {
          "internalType": "uint256",
          "name": "",
          "type": "uint256"
        }
      ],
      "stateMutability": "nonpayable",
      "type": "function"
    },
    {
      "inputs": [],
      "name": "getPatCount",
      "outputs": [
        {
          "internalType": "uint256",
          "name": "",
          "type": "uint256"
        }
      ],
      "stateMutability": "view",
      "type": "function"
    },
    {
      "inputs": [
        {
          "internalType": "uint256",
          "name": "index",
          "type": "uint256"
        }
      ],
      "name": "getPat",
      "outputs": [
        {
          "internalType": "uint256",
          "name": "",
          "type": "uint256"
        },
        {
          "internalType": "string",
          "name": "",
          "type": "string"
        },
        {
          "internalType": "string",
          "name": "",
          "type": "string"
        },
        {
          "internalType": "string",
          "name": "",
          "type": "string"
        },
        {
          "internalType": "string",
          "name": "",
          "type": "string"
        }
      ],
      "stateMutability": "view",
      "type": "function"
    }
  ],
  "bytecode": "0x608060405234801561001057600080fd5b50610e49806100206000396000f3fe608060405234801561001057600080fd5b506004361061004c5760003560e01c80632511e3c014610051578063ce4003771461006f578063e4f606091461009f578063e9a51a77146100d3575b600080fd5b610059610107565b604051610066919061075f565b60405180910390f35b61008960048036038101906100849190610900565b610113565b604051610096919061075f565b60405180910390f35b6100b960048036038101906100b491906109eb565b6101db565b6040516100ca959493929190610a97565b60405180910390f35b6100ed60048036038101906100e891906109eb565b6104e0565b6040516100fe959493929190610a97565b60405180910390f35b60008080549050905090565b6000806040518060a001604052808881526020018781526020018681526020018581526020018481525090806001815401808255809150506001900390600052602060002090600502016000909190919091506000820151816000015560208201518160010190816101859190610d12565b50604082015181600201908161019b9190610d12565b5060608201518160030190816101b19190610d12565b5060808201518160040190816101c79190610d12565b505050600080549050905095945050505050565b6000606080606080600086815481106101f7576101f6610de4565b5b9060005260206000209060050201600001546000878154811061021d5761021c610de4565b5b90600052602060002090600502016001016000888154811061024257610241610de4565b5b90600052602060002090600502016002016000898154811061026757610266610de4565b5b906000526020600020906005020160030160008a8154811061028c5761028b610de4565b5b90600052602060002090600502016004018380546102a990610b35565b80601f01602080910402602001604051908101604052809291908181526020018280546102d590610b35565b80156103225780601f106102f757610100808354040283529160200191610322565b820191906000526020600020905b81548152906001019060200180831161030557829003601f168201915b5050505050935082805461033590610b35565b80601f016020809104026020016040519081016040528092919081815260200182805461036190610b35565b80156103ae5780601f10610383576101008083540402835291602001916103ae565b820191906000526020600020905b81548152906001019060200180831161039157829003601f168201915b505050505092508180546103c190610b35565b80601f01602080910402602001604051908101604052809291908181526020018280546103ed90610b35565b801561043a5780601f1061040f5761010080835404028352916020019161043a565b820191906000526020600020905b81548152906001019060200180831161041d57829003601f168201915b5050505050915080805461044d90610b35565b80601f016020809104026020016040519081016040528092919081815260200182805461047990610b35565b80156104c65780601f1061049b576101008083540402835291602001916104c6565b820191906000526020600020905b8154815290600101906020018083116104a957829003601f168201915b505050505090509450945094509450945091939590929450565b600081815481106104f057600080fd5b906000526020600020906005020160009150905080600001549080600101805461051990610b35565b80601f016020809104026020016040519081016040528092919081815260200182805461054590610b35565b80156105925780601f1061056757610100808354040283529160200191610592565b820191906000526020600020905b81548152906001019060200180831161057557829003601f168201915b5050505050908060020180546105a790610b35565b80601f01602080910402602001604051908101604052809291908181526020018280546105d390610b35565b80156106205780601f106105f557610100808354040283529160200191610620565b820191906000526020600020905b81548152906001019060200180831161060357829003601f168201915b50505050509080600301805461063590610b35565b80601f016020809104026020016040519081016040528092919081815260200182805461066190610b35565b80156106ae5780601f10610683576101008083540402835291602001916106ae565b820191906000526020600020905b81548152906001019060200180831161069157829003601f168201915b5050505050908060040180546106c390610b35565b80601f01602080910402602001604051908101604052809291908181526020018280546106ef90610b35565b801561073c5780601f106107115761010080835404028352916020019161073c565b820191906000526020600020905b81548152906001019060200180831161071f57829003601f168201915b5050505050905085565b6000819050919050565b61075981610746565b82525050565b60006020820190506107746000830184610750565b92915050565b6000604051905090565b600080fd5b600080fd5b61079781610746565b81146107a257600080fd5b50565b6000813590506107b48161078e565b92915050565b600080fd5b600080fd5b6000601f19601f8301169050919050565b7f4e487b7100000000000000000000000000000000000000000000000000000000600052604160045260246000fd5b61080d826107c4565b810181811067ffffffffffffffff8211171561082c5761082b6107d5565b5b80604052505050565b600061083f61077a565b905061084b8282610804565b919050565b600067ffffffffffffffff82111561086b5761086a6107d5565b5b610874826107c4565b9050602081019050919050565b82818337600083830152505050565b60006108a361089e84610850565b610835565b9050828152602081018484840111156108bf576108be6107bf565b5b6108ca848285610881565b509392505050565b600082601f8301126108e7576108e66107ba565b5b81356108f7848260208601610890565b91505092915050565b600080600080600060a0868803121561091c5761091b610784565b5b600061092a888289016107a5565b955050602086013567ffffffffffffffff81111561094b5761094a610789565b5b610957888289016108d2565b945050604086013567ffffffffffffffff81111561097857610977610789565b5b610984888289016108d2565b935050606086013567ffffffffffffffff8111156109a5576109a4610789565b5b6109b1888289016108d2565b925050608086013567ffffffffffffffff8111156109d2576109d1610789565b5b6109de888289016108d2565b9150509295509295909350565b600060208284031215610a0157610a00610784565b5b6000610a0f848285016107a5565b91505092915050565b600081519050919050565b600082825260208201905092915050565b60005b83811015610a52578082015181840152602081019050610a37565b60008484015250505050565b6000610a6982610a18565b610a738185610a23565b9350610a83818560208601610a34565b610a8c816107c4565b840191505092915050565b600060a082019050610aac6000830188610750565b8181036020830152610abe8187610a5e565b90508181036040830152610ad28186610a5e565b90508181036060830152610ae68185610a5e565b90508181036080830152610afa8184610a5e565b90509695505050505050565b7f4e487b7100000000000000000000000000000000000000000000000000000000600052602260045260246000fd5b60006002820490506001821680610b4d57607f821691505b602082108103610b6057610b5f610b06565b5b50919050565b60008190508160005260206000209050919050565b60006020601f8301049050919050565b600082821b905092915050565b600060088302610bc87fffffffffffffffffffffffffffffffffffffffffffffffffffffffffffffffff82610b8b565b610bd28683610b8b565b95508019841693508086168417925050509392505050565b6000819050919050565b6000610c0f610c0a610c0584610746565b610bea565b610746565b9050919050565b6000819050919050565b610c2983610bf4565b610c3d610c3582610c16565b848454610b98565b825550505050565b600090565b610c52610c45565b610c5d818484610c20565b505050565b5b81811015610c8157610c76600082610c4a565b600181019050610c63565b5050565b601f821115610cc657610c9781610b66565b610ca084610b7b565b81016020851015610caf578190505b610cc3610cbb85610b7b565b830182610c62565b50505b505050565b600082821c905092915050565b6000610ce960001984600802610ccb565b1980831691505092915050565b6000610d028383610cd8565b9150826002028217905092915050565b610d1b82610a18565b67ffffffffffffffff811115610d3457610d336107d5565b5b610d3e8254610b35565b610d49828285610c85565b600060209050601f831160018114610d7c5760008415610d6a578287015190505b610d748582610cf6565b865550610ddc565b601f198416610d8a86610b66565b60005b82811015610db257848901518255600182019150602085019450602081019050610d8d565b86831015610dcf5784890151610dcb601f891682610cd8565b8355505b6001600288020188555050505b505050505050565b7f4e487b7100000000000000000000000000000000000000000000000000000000600052603260045260246000fdfea26469706673582212202897c81bbd0d482617c86dd4905d7d6f3568529fa7b3b23663d658b393d2ba8c64736f6c63430008130033",
  "immutableReferences": {},
  "source": "//SPDX-License-Identifier: MIT\r\npragma solidity ^0.8.0;\r\n\r\ncontract ForensicContract {\r\nstruct CrimeDetails {\r\nuint256 crime_id;\r\nstring exhibit_name;\r\nstring desc;\r\nstring timestamp;\r\nstring ipfsHash;\r\n}\r\n    \r\n    CrimeDetails[] public crime;    \r\n\r\n\r\nfunction addReport(uint256 _crime_id, string memory _exhibit_name, string memory _desc, string memory _timestamp, string memory _ipfsHash) public returns(uint256) {\r\n    crime.push(CrimeDetails(_crime_id, _exhibit_name, _desc, _timestamp, _ipfsHash));\r\n    return crime.length;        \r\n}\r\n\r\nfunction getPatCount() public view returns(uint256) {\r\n    return crime.length;\r\n}\r\n\r\nfunction getPat(uint256 index) public view returns (uint256, string memory, string memory,string memory, string memory)\r\n{\r\n    return (crime[index].crime_id, crime[index].exhibit_name, crime[index].desc, crime[index].timestamp, crime[index].ipfsHash);\r\n}\r\n\r\n    \r\n    // function getPat2(uint index) public view returns(string memory, uint, string memory, string memory)\r\n    // {\r\n    //     return (crime[index].par_rem, crime[index].fee, crime[index].message, crime[index].ipfsHash);\r\n    // }\r\n}\r\n",
  "sourcePath": "/home/abhi/repos/blockchain/crime-records-managment-systemv2/contracts/ForensicContract.sol",
  "compiler": {
    "name": "solc",
    "version": "0.8.19+commit.7dd6d404.Emscripten.clang"
  },
  "schemaVersion": "3.4.13",
  "updatedAt": "2023-04-11T16:00:01.339Z",
  "devdoc": {
    "kind": "dev",
    "methods": {},
    "version": 1
  },
  "userdoc": {
    "kind": "user",
    "methods": {},
    "version": 1
  }
}