{
  "contractName": "SimpleStorage",
  "abi": [
    {
      "inputs": [
        {
          "internalType": "uint256",
          "name": "",
          "type": "uint256"
        }
      ],
      "name": "crime",
      "outputs": [
        {
          "internalType": "uint256",
          "name": "crime_id",
          "type": "uint256"
        },
        {
          "internalType": "string",
          "name": "timestamp",
          "type": "string"
        },
        {
          "internalType": "string",
          "name": "offense_code",
          "type": "string"
        },
        {
          "internalType": "string",
          "name": "description",
          "type": "string"
        }
      ],
      "stateMutability": "view",
      "type": "function"
    },
    {
      "inputs": [
        {
          "internalType": "uint256",
          "name": "_crime_id",
          "type": "uint256"
        },
        {
          "internalType": "string",
          "name": "_timestamp",
          "type": "string"
        },
        {
          "internalType": "string",
          "name": "_offense_code",
          "type": "string"
        },
        {
          "internalType": "string",
          "name": "_description",
          "type": "string"
        }
      ],
      "name": "addCrimeReport",
      "outputs": [
        {
          "internalType": "uint256",
          "name": "",
          "type": "uint256"
        }
      ],
      "stateMutability": "nonpayable",
      "type": "function"
    },
    {
      "inputs": [],
      "name": "getCrimeCount",
      "outputs": [
        {
          "internalType": "uint256",
          "name": "",
          "type": "uint256"
        }
      ],
      "stateMutability": "view",
      "type": "function"
    },
    {
      "inputs": [
        {
          "internalType": "uint256",
          "name": "index",
          "type": "uint256"
        }
      ],
      "name": "getCrimeBlock",
      "outputs": [
        {
          "internalType": "uint256",
          "name": "",
          "type": "uint256"
        },
        {
          "internalType": "string",
          "name": "",
          "type": "string"
        },
        {
          "internalType": "string",
          "name": "",
          "type": "string"
        },
        {
          "internalType": "string",
          "name": "",
          "type": "string"
        }
      ],
      "stateMutability": "view",
      "type": "function"
    },
    {
      "inputs": [],
      "name": "getAllCrimeDetails",
      "outputs": [
        {
          "components": [
            {
              "internalType": "uint256",
              "name": "crime_id",
              "type": "uint256"
            },
            {
              "internalType": "string",
              "name": "timestamp",
              "type": "string"
            },
            {
              "internalType": "string",
              "name": "offense_code",
              "type": "string"
            },
            {
              "internalType": "string",
              "name": "description",
              "type": "string"
            }
          ],
          "internalType": "struct SimpleStorage.CrimeDetails[]",
          "name": "",
          "type": "tuple[]"
        }
      ],
      "stateMutability": "view",
      "type": "function"
    }
  ],
  "bytecode": "0x608060405234801561001057600080fd5b506110ec806100206000396000f3fe608060405234801561001057600080fd5b50600436106100575760003560e01c80633cb4c1cb1461005c578063644f30de1461008f57806398231bc9146100ad578063e9a51a77146100dd578063fdb917ed14610110575b600080fd5b6100766004803603810190610071919061085e565b61012e565b604051610086949392919061092a565b60405180910390f35b610097610366565b6040516100a49190610b10565b60405180910390f35b6100c760048036038101906100c29190610c67565b610585565b6040516100d49190610d22565b60405180910390f35b6100f760048036038101906100f2919061085e565b610630565b604051610107949392919061092a565b60405180910390f35b610118610808565b6040516101259190610d22565b60405180910390f35b60006060806060600080549050851061017c576040517f08c379a000000000000000000000000000000000000000000000000000000000815260040161017390610d89565b60405180910390fd5b600080868154811061019157610190610da9565b5b9060005260206000209060040201905080600001548160010182600201836003018280546101be90610e07565b80601f01602080910402602001604051908101604052809291908181526020018280546101ea90610e07565b80156102375780601f1061020c57610100808354040283529160200191610237565b820191906000526020600020905b81548152906001019060200180831161021a57829003601f168201915b5050505050925081805461024a90610e07565b80601f016020809104026020016040519081016040528092919081815260200182805461027690610e07565b80156102c35780601f10610298576101008083540402835291602001916102c3565b820191906000526020600020905b8154815290600101906020018083116102a657829003601f168201915b505050505091508080546102d690610e07565b80601f016020809104026020016040519081016040528092919081815260200182805461030290610e07565b801561034f5780601f106103245761010080835404028352916020019161034f565b820191906000526020600020905b81548152906001019060200180831161033257829003601f168201915b505050505090509450945094509450509193509193565b60606000805480602002602001604051908101604052809291908181526020016000905b8282101561057c5783829060005260206000209060040201604051806080016040529081600082015481526020016001820180546103c790610e07565b80601f01602080910402602001604051908101604052809291908181526020018280546103f390610e07565b80156104405780601f1061041557610100808354040283529160200191610440565b820191906000526020600020905b81548152906001019060200180831161042357829003601f168201915b5050505050815260200160028201805461045990610e07565b80601f016020809104026020016040519081016040528092919081815260200182805461048590610e07565b80156104d25780601f106104a7576101008083540402835291602001916104d2565b820191906000526020600020905b8154815290600101906020018083116104b557829003601f168201915b505050505081526020016003820180546104eb90610e07565b80601f016020809104026020016040519081016040528092919081815260200182805461051790610e07565b80156105645780601f1061053957610100808354040283529160200191610564565b820191906000526020600020905b81548152906001019060200180831161054757829003601f168201915b5050505050815250508152602001906001019061038a565b50505050905090565b60008060405180608001604052808781526020018681526020018581526020018481525090806001815401808255809150506001900390600052602060002090600402016000909190919091506000820151816000015560208201518160010190816105f19190610fe4565b5060408201518160020190816106079190610fe4565b50606082015181600301908161061d9190610fe4565b5050506000805490509050949350505050565b6000818154811061064057600080fd5b906000526020600020906004020160009150905080600001549080600101805461066990610e07565b80601f016020809104026020016040519081016040528092919081815260200182805461069590610e07565b80156106e25780601f106106b7576101008083540402835291602001916106e2565b820191906000526020600020905b8154815290600101906020018083116106c557829003601f168201915b5050505050908060020180546106f790610e07565b80601f016020809104026020016040519081016040528092919081815260200182805461072390610e07565b80156107705780601f1061074557610100808354040283529160200191610770565b820191906000526020600020905b81548152906001019060200180831161075357829003601f168201915b50505050509080600301805461078590610e07565b80601f01602080910402602001604051908101604052809291908181526020018280546107b190610e07565b80156107fe5780601f106107d3576101008083540402835291602001916107fe565b820191906000526020600020905b8154815290600101906020018083116107e157829003601f168201915b5050505050905084565b60008080549050905090565b6000604051905090565b600080fd5b600080fd5b6000819050919050565b61083b81610828565b811461084657600080fd5b50565b60008135905061085881610832565b92915050565b6000602082840312156108745761087361081e565b5b600061088284828501610849565b91505092915050565b61089481610828565b82525050565b600081519050919050565b600082825260208201905092915050565b60005b838110156108d45780820151818401526020810190506108b9565b60008484015250505050565b6000601f19601f8301169050919050565b60006108fc8261089a565b61090681856108a5565b93506109168185602086016108b6565b61091f816108e0565b840191505092915050565b600060808201905061093f600083018761088b565b818103602083015261095181866108f1565b9050818103604083015261096581856108f1565b9050818103606083015261097981846108f1565b905095945050505050565b600081519050919050565b600082825260208201905092915050565b6000819050602082019050919050565b6109b981610828565b82525050565b600082825260208201905092915050565b60006109db8261089a565b6109e581856109bf565b93506109f58185602086016108b6565b6109fe816108e0565b840191505092915050565b6000608083016000830151610a2160008601826109b0565b5060208301518482036020860152610a3982826109d0565b91505060408301518482036040860152610a5382826109d0565b91505060608301518482036060860152610a6d82826109d0565b9150508091505092915050565b6000610a868383610a09565b905092915050565b6000602082019050919050565b6000610aa682610984565b610ab0818561098f565b935083602082028501610ac2856109a0565b8060005b85811015610afe5784840389528151610adf8582610a7a565b9450610aea83610a8e565b925060208a01995050600181019050610ac6565b50829750879550505050505092915050565b60006020820190508181036000830152610b2a8184610a9b565b905092915050565b600080fd5b600080fd5b7f4e487b7100000000000000000000000000000000000000000000000000000000600052604160045260246000fd5b610b74826108e0565b810181811067ffffffffffffffff82111715610b9357610b92610b3c565b5b80604052505050565b6000610ba6610814565b9050610bb28282610b6b565b919050565b600067ffffffffffffffff821115610bd257610bd1610b3c565b5b610bdb826108e0565b9050602081019050919050565b82818337600083830152505050565b6000610c0a610c0584610bb7565b610b9c565b905082815260208101848484011115610c2657610c25610b37565b5b610c31848285610be8565b509392505050565b600082601f830112610c4e57610c4d610b32565b5b8135610c5e848260208601610bf7565b91505092915050565b60008060008060808587031215610c8157610c8061081e565b5b6000610c8f87828801610849565b945050602085013567ffffffffffffffff811115610cb057610caf610823565b5b610cbc87828801610c39565b935050604085013567ffffffffffffffff811115610cdd57610cdc610823565b5b610ce987828801610c39565b925050606085013567ffffffffffffffff811115610d0a57610d09610823565b5b610d1687828801610c39565b91505092959194509250565b6000602082019050610d37600083018461088b565b92915050565b7f496e646578206f7574206f662072616e67650000000000000000000000000000600082015250565b6000610d736012836108a5565b9150610d7e82610d3d565b602082019050919050565b60006020820190508181036000830152610da281610d66565b9050919050565b7f4e487b7100000000000000000000000000000000000000000000000000000000600052603260045260246000fd5b7f4e487b7100000000000000000000000000000000000000000000000000000000600052602260045260246000fd5b60006002820490506001821680610e1f57607f821691505b602082108103610e3257610e31610dd8565b5b50919050565b60008190508160005260206000209050919050565b60006020601f8301049050919050565b600082821b905092915050565b600060088302610e9a7fffffffffffffffffffffffffffffffffffffffffffffffffffffffffffffffff82610e5d565b610ea48683610e5d565b95508019841693508086168417925050509392505050565b6000819050919050565b6000610ee1610edc610ed784610828565b610ebc565b610828565b9050919050565b6000819050919050565b610efb83610ec6565b610f0f610f0782610ee8565b848454610e6a565b825550505050565b600090565b610f24610f17565b610f2f818484610ef2565b505050565b5b81811015610f5357610f48600082610f1c565b600181019050610f35565b5050565b601f821115610f9857610f6981610e38565b610f7284610e4d565b81016020851015610f81578190505b610f95610f8d85610e4d565b830182610f34565b50505b505050565b600082821c905092915050565b6000610fbb60001984600802610f9d565b1980831691505092915050565b6000610fd48383610faa565b9150826002028217905092915050565b610fed8261089a565b67ffffffffffffffff81111561100657611005610b3c565b5b6110108254610e07565b61101b828285610f57565b600060209050601f83116001811461104e576000841561103c578287015190505b6110468582610fc8565b8655506110ae565b601f19841661105c86610e38565b60005b828110156110845784890151825560018201915060208501945060208101905061105f565b868310156110a1578489015161109d601f891682610faa565b8355505b6001600288020188555050505b50505050505056fea264697066735822122048b50c8baa94759a92d4d2b312130c16d0d3f5a29e7117ada9831eb628b9aede64736f6c63430008130033",
  "immutableReferences": {},
  "source": "// SPDX-License-Identifier: MIT\r\npragma solidity ^0.8.0;\r\npragma abicoder v2;\r\n\r\ncontract SimpleStorage {\r\n    struct CrimeDetails {\r\n        uint256 crime_id;\r\n        string timestamp;\r\n        string offense_code;\r\n        string description;\r\n    }\r\n\r\n    CrimeDetails[] public crime;\r\n\r\n    function addCrimeReport(\r\n        uint256 _crime_id,\r\n        string memory _timestamp,\r\n        string memory _offense_code,\r\n        string memory _description\r\n    ) public returns (uint256) {\r\n        crime.push(\r\n            CrimeDetails({\r\n                crime_id: _crime_id,\r\n                timestamp: _timestamp,\r\n                offense_code: _offense_code,\r\n                description: _description\r\n            })\r\n        );\r\n        return crime.length;\r\n    }\r\n\r\n    function getCrimeCount() public view returns (uint256) {\r\n        return crime.length;\r\n    }\r\n\r\n    function getCrimeBlock(\r\n        uint256 index\r\n    )\r\n        public\r\n        view\r\n        returns (uint256, string memory, string memory, string memory)\r\n    {\r\n        require(index < crime.length, \"Index out of range\");\r\n        CrimeDetails storage tempCrime = crime[index];\r\n        return (\r\n            tempCrime.crime_id,\r\n            tempCrime.timestamp,\r\n            tempCrime.offense_code,\r\n            tempCrime.description\r\n        );\r\n    }\r\n\r\n    function getAllCrimeDetails() public view returns (CrimeDetails[] memory) {\r\n        return crime;\r\n    }\r\n}\r\n",
  "sourcePath": "/home/abhi/repos/blockchain/crime-records-managment-systemv2/contracts/SimpleStorage.sol",
  "compiler": {
    "name": "solc",
    "version": "0.8.19+commit.7dd6d404.Emscripten.clang"
  },
  "schemaVersion": "3.4.13",
  "updatedAt": "2023-04-11T16:00:01.350Z",
  "devdoc": {
    "kind": "dev",
    "methods": {},
    "version": 1
  },
  "userdoc": {
    "kind": "user",
    "methods": {},
    "version": 1
  }
}